S0120000617474696E795F70776D2E73726563C6
S113000009C00EC00DC00CC00BC00AC009C008C096
S113001007C006C011241FBECFE9CDBF7AD0E1C00E
S1130020EFCF87B3816087BB8FB58B608FBD8FB5F2
S113003080688FBD089587B1836087B986B1806871
S113004086B9089583B7887F682B63BF089586BFF8
S1130050089586B1806486B986B1876086B9349B79
S1130060FECF80E28A95F1F724B165B1862F90E046
S1130070A0E0B0E0BA2FA92F982F8827BC01CD01AA
S1130080622B08954F925F926F927F92AF92BF92CC
S1130090CF92DF92EF92FF920F931F93CF93DF9350
S11300A0CDB7DD27C450CDBF29013A01E982FA82D8
S11300B00B831C83621B730B840B950B0D891E89A8
S11300C02F89388DA90198012A193B094C095D092A
S11300D04DD029813A814B815C8124193509460927
S11300E057095DD0C601B501620F731F841F951FA8
S11300F0CC5FCDBFDF91CF911F910F91FF90EF9017
S1130100DF90CF90BF90AF907F906F905F904F90B3
S1130110089587B38B7F87BB88B3846088BB81DFF6
S113012061E070E080E090E08DDF85DF92DF1F9278
S11301301F921F922FEF2F93A12CB12C6501EE2457
S1130140EA9413E0F12E00E010E020E030E0A90191
S113015099DF0F900F900F900F90862F78DF8FE527
S113016099E00197F1F700C00000E0CFEE27FF27E8
S1130170AA27BB2708C0A20FB31FE41FF51F220F35
S1130180331F441F551F969587957795679598F368
S11301907040A9F7009799F7BD01CF010895A1E236
S11301A01A2EAA1BBB1BFD010DC0AA1FBB1FEE1FED
S11301B0FF1FA217B307E407F50720F0A21BB30B38
S11301C0E40BF50B661F771F881F991F1A9469F7B4
S11301D060957095809590959B01AC01BD01CF0110
S10901E00895F894FFCF1E
S9030000FC
